:100000000EC01DC01CC01BC01AC026C018C017C01F
:1000100016C015C014C013C012C011C010C01124E6
:100020001FBECFE5D2E0DEBFCDBF20E0A0E6B0E04E
:1000300001C01D92A936B207E1F758D09BC0E0CFAE
:100040003699FECF80ED97E0369A3699FECF24B1EF
:1000500025B10197C9F708951F920F920FB60F921D
:1000600011242F933F938F939F93AF93BF938091CE
:10007000650090916600A0916700B0916800309192
:10008000640026E0230F2D3768F129E8230F03963B
:10009000A11DB11D209364008093650090936600BC
:1000A000A0936700B0936800809160009091610018
:1000B000A0916200B09163000196A11DB11D8093D3
:1000C000600090936100A0936200B0936300BF91C1
:1000D000AF919F918F913F912F910F900FBE0F90F5
:1000E0001F9018950296A11DB11DD4CF81B781BF75
:1000F0008AB582608ABD8AB581608ABD83B7887FF0
:10010000826083BF789489B7826089BF80B7807F1F
:1001100080BF80B7806880BF80B7806480BF8CB5A7
:1001200080648CBD8FEF8DBD80B7846080BF86B149
:100130008877836886B9379AF8948EE080BD80E826
:1001400088B917BA18BA84E084BB81E087B987E818
:1001500086B9369A3699FECF85B7877E886085BF87
:10016000B99A6EDFB998BB9A6BDFBB98BC9A68DF0F
:08017000BC98F6CFF894FFCF14
:00000001FF
