:100000000EC01DC01CC01BC01AC01AC018C017C02B
:1000100061C015C014C013C012C011C010C011249B
:100020001FBECFE5D2E0DEBFCDBF20E0A0E6B0E04E
:1000300001C01D92AD36B207E1F756D010C1E0CF36
:100040001F920F920FB60F9211242F933F938F930D
:100050009F93AF93BF938091690090916A00A091A4
:100060006B00B0916C003091680026E0230F2D37B3
:1000700068F129E8230F0396A11DB11D20936800A4
:100080008093690090936A00A0936B00B0936C001A
:100090008091640090916500A0916600B091670026
:1000A0000196A11DB11D8093640090936500A093FB
:1000B0006600B0936700BF91AF919F918F913F9180
:1000C0002F910F900FBE0F901F9018950296A11DB3
:1000D000B11DD4CF1F920F920FB60F9211240F9023
:1000E0000FBE0F901F90189581B781BF8AB58260AF
:1000F0008ABD8AB581608ABD83B7887F826083BFED
:10010000789489B7826089BF80B7807F80BF80B7CD
:10011000806880BF80B7806480BF8CB580648CBDF0
:100120008FEF8DBD80B7846080BF86B1887783688C
:1001300086B9379AF89419BE8CE080BF1BBE86E062
:1001400080BD80E888B917BA18BA81E087B98CE811
:1001500086B9369A3699FECF85B7877E85BF85B733
:10016000806285BFE2E0F8E0A0E1B1E0C2E0D3E068
:100170008FB590916300911104C0813808F43EC09E
:10018000E7BB3699FECF20E290E080E07894889536
:10019000F89434B165B1762F632F860F971F2150E5
:1001A000A9F725E0969587952A95E1F720916000BB
:1001B00030916100BC01621B730B9B0177FF03C090
:1001C000319521953109233031055CF1309163007F
:1001D000209162009093610080936000211110C013
:1001E0008E3673E0970778F5843F22E0920788F512
:1001F00021E08B3A924084F420E00EC017BAC1CFC0
:10020000803D73E09707F8F4863523E0920708F500
:1002100021E08C3D924084F3321719F02093630063
:10022000E7BB8091620096B3492F417050E084177C
:10023000150609F49DCF8B27809362001092610010
:100240001092600095CF333061F3D0936300A7BB69
:10025000E8CF323031F3C0936300F7BBE2CFF894BC
:02026000FFCFCE
:00000001FF
